S0160000756C7472612D736F6E69635F30312E73726563DD
S11300000C942A000C940A010C943C000C943C00BF
S11300100C943C000C943C000C943C000C943C006C
S11300200C943C000C943C000C943C000C94440153
S11300300C943C000C943C000C943C000C943C004C
S11300400C943C000C943C000C943C000C943C003C
S11300500C943C0011241FBECFE5D8E0DEBFCDBF19
S113006020E0A0E6B0E001C01D92A836B207E1F797
S11300700E945B010C949A030C94000087B3836084
S113008087BB0895892B39F088B3816088BB88B316
S11300908D7F88BB089588B38E7F88BB88B38260C8
S11300A088BB089588B38E7F88BB88B38D7F88BB57
S11300B008958FEF8ABB84BB0895AC011816190606
S11300C06CF180E090E05EC093E095BBEFE1FEE46C
S11300D03197F1F700C0000086E085BBEFE1FEE454
S11300E03197F1F700C000008CE085BBEFE1FEE43E
S11300F03197F1F700C0000089E085BBEFE1FEE431
S11301003197F1F700C0000095BB8FE19EE40197A1
S1130110F1F700C000002F5F3F4F02C020E030E045
S1130120241735078CF2EFE3FCE93197F1F700C0AF
S11301300000089523E025BBEFE1FEE43197F1F7D9
S113014000C0000039E035BBEFE1FEE43197F1F780
S113015000C000003CE035BBEFE1FEE43197F1F76D
S113016000C0000036E035BBEFE1FEE43197F1F763
S113017000C0000025BBEFE1FEE43197F1F700C0B9
S1130180000001969A01552324F422273327241BC7
S1130190350B8217930774F28FE39CE90197F1F70B
S11301A000C00000089581B3806881BB8BB7806470
S11301B08BBF85B7816085BF89B7816089BF13BE56
S11301C0089582B3806882BB8AE08A95F1F782B38E
S11301D08F7782BB89EF90E00197F1F700C00000B0
S11301E080916000909161006AE370E00E94720364
S11301F0072E000C880B990B0E94A5020E94560240
S113020020E030E040E85FE30E94EA010E946D02D2
S1130210CB0108951F920F920FB60F9211242F93C2
S11302208F939F938091640090916500019789F466
S113023013BE22B78091620090916300820F911DDA
S1130240909361008093600012BE1092650010923A
S113025064008091640090916500892B49F483B710
S1130260816083BF81E090E0909365008093640097
S113027010926300109262009F918F912F910F90C2
S11302800FBE0F901F9018951F920F920FB60F92EA
S113029011248F939F9380916200909163009395B2
S11302A090936300809362009F918F910F900FBE93
S11302B00F901F9018950E943E000E94D3000E9448
S11302C0590078940E94E10090936700809366003F
S11302D02FEF81EE94E0215080409040E1F700C080
S11302E00000C0E0D0E070C00E94E100909367007D
S11302F0809366000AC080E090E00E9442000E9461
S1130300E10090936700809366008091660090916D
S11303106700079784F70E9452002FEF83EC99E05F
S1130320215080409040E1F700C000008EEF9FEF25
S11303300E945D002FEF81EE94E0215080409040B8
S1130340E1F700C000000E94E100909367008093F1
S1130350660081E090E00E94420004C081E090E0E9
S11303600E9442000E94E1002091660030916700E3
S1130370821B930B449791F70E9452002FEF83EC5A
S113038099E0215080409040E1F700C000000E94B5
S1130390E10090936700809366002FEF81EE94E074
S11303A0215080409040E1F700C0000082E090E0DE
S11303B00E945D002FEF83EC99E021508040904033
S11303C0E1F700C000002196C330D1050CF48CCFB6
S11303D088CF5058BB27AA270E9401020C942003FF
S11303E00E94120338F00E94190320F039F49F3F51
S11303F019F426F40C940F030EF4E095E7FB0C9427
S1130400E002E92F0E94310358F3BA176207730719
S11304108407950720F079F4A6F50C946B030EF489
S1130420E0950B2EBA2FA02D0B01B90190010C0100
S1130430CA01A0011124FF27591B99F0593F50F418
S1130440503E68F11A16F040A22F232F342F442770
S1130450585FF3CF469537952795A795F040539568
S1130460C9F77EF41F16BA0B620B730B840BBAF038
S11304709150A1F0FF0FBB1F661F771F881FC2F7A3
S11304800EC0BA0F621F731F841F48F487957795B7
S11304906795B795F7959E3F08F0B0CF9395880F71
S11304A008F09927EE0F9795879508950E945303B6
S11304B090F09F3748F4911116F40C946C0360E0AB
S11304C070E080E89FE3089526F01B16611D711DFE
S11304D0811D0C94E6020C9401030E94740268943A
S11304E0B1110C946C0308950E94390388F09F574E
S11304F098F0B92F9927B751B0F0E1F0660F771F44
S1130500881F991F1AF0BA95C9F714C0B13091F039
S11305100E946B03B1E008950C946B03672F782F4E
S11305208827B85F39F0B93FCCF3869577956795FE
S1130530B395D9F73EF490958095709561957F4F6A
S11305408F4F9F4F0895E89409C097FB3EF4909510
S11305508095709561957F4F8F4F9F4F9923A9F098
S1130560F92F96E9BB279395F69587957795679527
S1130570B795F111F8CFFAF4BB0F11F460FF1BC06B
S11305806F5F7F4F8F4F9F4F16C0882311F096E9FE
S113059011C0772321F09EE8872F762F05C06623AC
S11305A071F096E8862F70E060E02AF09A95660F65
S11305B0771F881FDAF7880F9695879597F908951E
S11305C097F99F6780E870E060E00895882371F4EC
S11305D0772321F09850872B762F07C0662311F4D8
S11305E099270DC09051862B70E060E02AF09A950F
S11305F0660F771F881FDAF7880F9695879597F906
S113060008959F3F31F0915020F487957795679531
S1130610B795880F911D9695879597F908959FEF43
S113062080EC089500240A94161617061806090685
S1130630089500240A941216130614060506089554
S1130640092E0394000C11F4882352F0BB0F40F4DC
S1130650BF2B11F460FF04C06F5F7F4F8F4F9F4F1C
S1130660089557FD9058440F551F59F05F3F71F09E
S11306704795880F97FB991F61F09F3F79F0879505
S11306800895121613061406551FF2CF4695F1DF8E
S113069008C0161617061806991FF1CF869571051E
S11306A06105089408950E943903A0F0BEE7B917C4
S11306B088F4BB279F3860F41616B11D672F782F76
S11306C08827985FF7CF869577956795B11D9395A1
S11306D09639C8F30895E894BB2766277727CB019A
S11306E097F9089597FB072E16F4009407D077FD29
S11306F009D00E94860307FC05D03EF490958195AD
S11307009F4F0895709561957F4F0895AA1BBB1B59
S113071051E107C0AA1FBB1FA617B70710F0A61BFD
S1130720B70B881F991F5A95A9F780959095BC011E
S10B0730CD010895F894FFCFF8
S9030000FC
